{
  "_format": "hh-sol-artifact-1",
  "contractName": "OmniPredictMarket",
  "sourceName": "contracts/OmniPredictMarket.sol",
  "abi": [
    {
      "inputs": [
        {
          "internalType": "address",
          "name": "_ftsoRegistry",
          "type": "address"
        }
      ],
      "stateMutability": "nonpayable",
      "type": "constructor"
    },
    {
      "inputs": [
        {
          "internalType": "address",
          "name": "owner",
          "type": "address"
        }
      ],
      "name": "OwnableInvalidOwner",
      "type": "error"
    },
    {
      "inputs": [
        {
          "internalType": "address",
          "name": "account",
          "type": "address"
        }
      ],
      "name": "OwnableUnauthorizedAccount",
      "type": "error"
    },
    {
      "inputs": [],
      "name": "ReentrancyGuardReentrantCall",
      "type": "error"
    },
    {
      "anonymous": false,
      "inputs": [
        {
          "indexed": true,
          "internalType": "uint256",
          "name": "marketId",
          "type": "uint256"
        },
        {
          "indexed": true,
          "internalType": "address",
          "name": "user",
          "type": "address"
        },
        {
          "indexed": false,
          "internalType": "bool",
          "name": "isYes",
          "type": "bool"
        },
        {
          "indexed": false,
          "internalType": "uint256",
          "name": "amount",
          "type": "uint256"
        }
      ],
      "name": "BetPlaced",
      "type": "event"
    },
    {
      "anonymous": false,
      "inputs": [
        {
          "indexed": true,
          "internalType": "uint256",
          "name": "marketId",
          "type": "uint256"
        },
        {
          "indexed": false,
          "internalType": "string",
          "name": "title",
          "type": "string"
        },
        {
          "indexed": false,
          "internalType": "string",
          "name": "symbol",
          "type": "string"
        },
        {
          "indexed": false,
          "internalType": "uint256",
          "name": "targetPrice",
          "type": "uint256"
        },
        {
          "indexed": false,
          "internalType": "uint256",
          "name": "resolutionTimestamp",
          "type": "uint256"
        }
      ],
      "name": "MarketCreated",
      "type": "event"
    },
    {
      "anonymous": false,
      "inputs": [
        {
          "indexed": true,
          "internalType": "uint256",
          "name": "marketId",
          "type": "uint256"
        },
        {
          "indexed": false,
          "internalType": "enum OmniPredictMarket.Outcome",
          "name": "winningOutcome",
          "type": "uint8"
        },
        {
          "indexed": false,
          "internalType": "uint256",
          "name": "finalPrice",
          "type": "uint256"
        }
      ],
      "name": "MarketResolved",
      "type": "event"
    },
    {
      "anonymous": false,
      "inputs": [
        {
          "indexed": true,
          "internalType": "address",
          "name": "previousOwner",
          "type": "address"
        },
        {
          "indexed": true,
          "internalType": "address",
          "name": "newOwner",
          "type": "address"
        }
      ],
      "name": "OwnershipTransferred",
      "type": "event"
    },
    {
      "anonymous": false,
      "inputs": [
        {
          "indexed": true,
          "internalType": "uint256",
          "name": "marketId",
          "type": "uint256"
        },
        {
          "indexed": true,
          "internalType": "address",
          "name": "user",
          "type": "address"
        },
        {
          "indexed": false,
          "internalType": "uint256",
          "name": "amount",
          "type": "uint256"
        }
      ],
      "name": "WinningsClaimed",
      "type": "event"
    },
    {
      "inputs": [],
      "name": "CREATION_FEE",
      "outputs": [
        {
          "internalType": "uint256",
          "name": "",
          "type": "uint256"
        }
      ],
      "stateMutability": "view",
      "type": "function"
    },
    {
      "inputs": [
        {
          "internalType": "uint256",
          "name": "_marketId",
          "type": "uint256"
        },
        {
          "internalType": "bool",
          "name": "_isYesWinning",
          "type": "bool"
        }
      ],
      "name": "adminResolveMarket",
      "outputs": [],
      "stateMutability": "nonpayable",
      "type": "function"
    },
    {
      "inputs": [
        {
          "internalType": "uint256",
          "name": "_marketId",
          "type": "uint256"
        }
      ],
      "name": "claimWinnings",
      "outputs": [],
      "stateMutability": "nonpayable",
      "type": "function"
    },
    {
      "inputs": [
        {
          "internalType": "string",
          "name": "_title",
          "type": "string"
        },
        {
          "internalType": "string",
          "name": "_symbol",
          "type": "string"
        },
        {
          "internalType": "uint256",
          "name": "_targetPrice",
          "type": "uint256"
        },
        {
          "internalType": "bool",
          "name": "_isAbove",
          "type": "bool"
        },
        {
          "internalType": "uint256",
          "name": "_resolutionTimestamp",
          "type": "uint256"
        }
      ],
      "name": "createMarket",
      "outputs": [],
      "stateMutability": "payable",
      "type": "function"
    },
    {
      "inputs": [],
      "name": "ftsoRegistry",
      "outputs": [
        {
          "internalType": "contract IFtsoRegistry",
          "name": "",
          "type": "address"
        }
      ],
      "stateMutability": "view",
      "type": "function"
    },
    {
      "inputs": [
        {
          "internalType": "uint256",
          "name": "",
          "type": "uint256"
        },
        {
          "internalType": "address",
          "name": "",
          "type": "address"
        }
      ],
      "name": "hasClaimed",
      "outputs": [
        {
          "internalType": "bool",
          "name": "",
          "type": "bool"
        }
      ],
      "stateMutability": "view",
      "type": "function"
    },
    {
      "inputs": [],
      "name": "marketCount",
      "outputs": [
        {
          "internalType": "uint256",
          "name": "",
          "type": "uint256"
        }
      ],
      "stateMutability": "view",
      "type": "function"
    },
    {
      "inputs": [
        {
          "internalType": "uint256",
          "name": "",
          "type": "uint256"
        }
      ],
      "name": "markets",
      "outputs": [
        {
          "internalType": "uint256",
          "name": "id",
          "type": "uint256"
        },
        {
          "internalType": "string",
          "name": "title",
          "type": "string"
        },
        {
          "internalType": "string",
          "name": "symbol",
          "type": "string"
        },
        {
          "internalType": "uint256",
          "name": "targetPrice",
          "type": "uint256"
        },
        {
          "internalType": "bool",
          "name": "isAbove",
          "type": "bool"
        },
        {
          "internalType": "uint256",
          "name": "resolutionTimestamp",
          "type": "uint256"
        },
        {
          "internalType": "uint256",
          "name": "yesPool",
          "type": "uint256"
        },
        {
          "internalType": "uint256",
          "name": "noPool",
          "type": "uint256"
        },
        {
          "internalType": "enum OmniPredictMarket.Outcome",
          "name": "winningOutcome",
          "type": "uint8"
        },
        {
          "internalType": "bool",
          "name": "resolved",
          "type": "bool"
        }
      ],
      "stateMutability": "view",
      "type": "function"
    },
    {
      "inputs": [
        {
          "internalType": "uint256",
          "name": "",
          "type": "uint256"
        },
        {
          "internalType": "address",
          "name": "",
          "type": "address"
        }
      ],
      "name": "noBets",
      "outputs": [
        {
          "internalType": "uint256",
          "name": "",
          "type": "uint256"
        }
      ],
      "stateMutability": "view",
      "type": "function"
    },
    {
      "inputs": [],
      "name": "owner",
      "outputs": [
        {
          "internalType": "address",
          "name": "",
          "type": "address"
        }
      ],
      "stateMutability": "view",
      "type": "function"
    },
    {
      "inputs": [
        {
          "internalType": "uint256",
          "name": "_marketId",
          "type": "uint256"
        },
        {
          "internalType": "bool",
          "name": "_isYes",
          "type": "bool"
        }
      ],
      "name": "placeBet",
      "outputs": [],
      "stateMutability": "payable",
      "type": "function"
    },
    {
      "inputs": [],
      "name": "renounceOwnership",
      "outputs": [],
      "stateMutability": "nonpayable",
      "type": "function"
    },
    {
      "inputs": [
        {
          "internalType": "uint256",
          "name": "_marketId",
          "type": "uint256"
        }
      ],
      "name": "resolveMarket",
      "outputs": [],
      "stateMutability": "nonpayable",
      "type": "function"
    },
    {
      "inputs": [
        {
          "internalType": "address",
          "name": "_newRegistry",
          "type": "address"
        }
      ],
      "name": "setFtsoRegistry",
      "outputs": [],
      "stateMutability": "nonpayable",
      "type": "function"
    },
    {
      "inputs": [
        {
          "internalType": "address",
          "name": "newOwner",
          "type": "address"
        }
      ],
      "name": "transferOwnership",
      "outputs": [],
      "stateMutability": "nonpayable",
      "type": "function"
    },
    {
      "inputs": [
        {
          "internalType": "uint256",
          "name": "",
          "type": "uint256"
        },
        {
          "internalType": "address",
          "name": "",
          "type": "address"
        }
      ],
      "name": "yesBets",
      "outputs": [
        {
          "internalType": "uint256",
          "name": "",
          "type": "uint256"
        }
      ],
      "stateMutability": "view",
      "type": "function"
    }
  ],
  "bytecode": "0x608060405234801561001057600080fd5b5060405161188938038061188983398101604081905261002f916100f8565b338061005557604051631e4fbdf760e01b81526000600482015260240160405180910390fd5b61005e816100a8565b5060017f9b779b17422d0df92223018b32b4d1fa46e071723d6817e2486d003becc55f0055600180546001600160a01b0319166001600160a01b0392909216919091179055610128565b600080546001600160a01b038381166001600160a01b0319831681178455604051919092169283917f8be0079c531659141344cd1fd0a4f28419497f9722a3daafe3b4186f6b6457e09190a35050565b60006020828403121561010a57600080fd5b81516001600160a01b038116811461012157600080fd5b9392505050565b611752806101376000396000f3fe6080604052600436106100f35760003560e01c8063873f6f9e1161008a578063b1283e7711610059578063b1283e77146102e2578063ec97908214610318578063f2fde38b1461032e578063f5eb75a41461034e57600080fd5b8063873f6f9e146102465780638da5cb5b146102915780639ed9c74d146102af578063ae279bb7146102c257600080fd5b80635fc56014116100c65780635fc56014146101cf5780636399d03d146101f1578063677bd9ff14610211578063715018a61461023157600080fd5b8063155e4b82146100f8578063354c61991461014357806338b5f8691461017b57806349a2104d146101b3575b600080fd5b34801561010457600080fd5b50610130610113366004611123565b600560209081526000928352604080842090915290825290205481565b6040519081526020015b60405180910390f35b34801561014f57600080fd5b5061013061015e366004611123565b600460209081526000928352604080842090915290825290205481565b34801561018757600080fd5b5060015461019b906001600160a01b031681565b6040516001600160a01b03909116815260200161013a565b3480156101bf57600080fd5b50610130678ac7230489e8000081565b3480156101db57600080fd5b506101ef6101ea36600461114f565b610361565b005b3480156101fd57600080fd5b506101ef61020c366004611171565b61038b565b34801561021d57600080fd5b506101ef61022c366004611171565b610542565b34801561023d57600080fd5b506101ef610923565b34801561025257600080fd5b50610281610261366004611123565b600660209081526000928352604080842090915290825290205460ff1681565b604051901515815260200161013a565b34801561029d57600080fd5b506000546001600160a01b031661019b565b6101ef6102bd36600461119a565b610937565b3480156102ce57600080fd5b506101ef6102dd36600461119a565b610b0d565b3480156102ee57600080fd5b506103026102fd366004611171565b610bd9565b60405161013a9a9998979695949392919061123b565b34801561032457600080fd5b5061013060025481565b34801561033a57600080fd5b506101ef61034936600461114f565b610d41565b6101ef61035c366004611355565b610d7c565b61036961103e565b600180546001600160a01b0319166001600160a01b0392909216919091179055565b60008181526003602052604090206008810154610100900460ff16156103cc5760405162461bcd60e51b81526004016103c3906113db565b60405180910390fd5b80600501544210156104175760405162461bcd60e51b8152602060048201526014602482015273546f6f206561726c7920746f207265736f6c766560601b60448201526064016103c3565b60015460405163534d7ee360e11b81526000916001600160a01b03169063a69afdc69061044b90600286019060040161144c565b606060405180830381865afa158015610468573d6000803e3d6000fd5b505050506040513d601f19601f8201168201806040525081019061048c91906114d7565b5050600483015490915060009060ff166104ac57826003015482106104b4565b826003015482115b60088401805461ff0019166101001790559050806104d35760026104d6565b60015b60088401805460ff191660018360028111156104f4576104f4611203565b0217905550600883015460405185917f661ce16e44a34377fc37c19874f4b1bec6e84b072cf8d318838fe17c20c58e44916105349160ff16908690611505565b60405180910390a250505050565b61054a61106b565b60008181526003602052604090206008810154610100900460ff166105b15760405162461bcd60e51b815260206004820152601760248201527f4d61726b6574206e6f74207265736f6c7665642079657400000000000000000060448201526064016103c3565b600082815260066020908152604080832033845290915290205460ff161561060d5760405162461bcd60e51b815260206004820152600f60248201526e105b1c9958591e4818db185a5b5959608a1b60448201526064016103c3565b600080826007015483600601546106249190611536565b90506001600884015460ff16600281111561064157610641611203565b036106c05760008481526004602090815260408083203384529091529020548061069f5760405162461bcd60e51b815260206004820152600f60248201526e4e6f2077696e6e696e67206265747360881b60448201526064016103c3565b60068401546106ae838361154f565b6106b89190611566565b925050610756565b6002600884015460ff1660028111156106db576106db611203565b03610756576000848152600560209081526040808320338452909152902054806107395760405162461bcd60e51b815260206004820152600f60248201526e4e6f2077696e6e696e67206265747360881b60448201526064016103c3565b6007840154610748838361154f565b6107529190611566565b9250505b60008481526006602090815260408083203384529091528120805460ff19166001179055606461078784600261154f565b6107919190611566565b9050600061079f8285611588565b9050811561084257600080546040516001600160a01b039091169084908381818185875af1925050503d80600081146107f4576040519150601f19603f3d011682016040523d82523d6000602084013e6107f9565b606091505b50509050806108405760405162461bcd60e51b8152602060048201526013602482015272119959481d1c985b9cd9995c8819985a5b1959606a1b60448201526064016103c3565b505b604051600090339083908381818185875af1925050503d8060008114610884576040519150601f19603f3d011682016040523d82523d6000602084013e610889565b606091505b50509050806108cc5760405162461bcd60e51b815260206004820152600f60248201526e151c985b9cd9995c8819985a5b1959608a1b60448201526064016103c3565b604051828152339088907f5380cf6fe903b40c6d5a9e0dfbca2f3a423f0a21520b4d5947ed5169bdba946d9060200160405180910390a350505050505061092060016000805160206116fd83398151915255565b50565b61092b61103e565b6109356000611087565b565b61093f61106b565b600034116109995760405162461bcd60e51b815260206004820152602160248201527f42657420616d6f756e74206d7573742062652067726561746572207468616e206044820152600360fc1b60648201526084016103c3565b60008281526003602052604090206008810154610100900460ff16156109d15760405162461bcd60e51b81526004016103c3906113db565b80600501544210610a185760405162461bcd60e51b8152602060048201526011602482015270151c98591a5b99c81a5cc818db1bdcd959607a1b60448201526064016103c3565b8115610a6b5734816006016000828254610a329190611536565b9091555050600083815260046020908152604080832033845290915281208054349290610a60908490611536565b90915550610ab39050565b34816007016000828254610a7f9190611536565b9091555050600083815260056020908152604080832033845290915281208054349290610aad908490611536565b90915550505b604080518315158152346020820152339185917f4af71b021e799c62c158bd54636ca8da2fa26115a21a2dc6efe486ec104fd15f910160405180910390a350610b0960016000805160206116fd83398151915255565b5050565b610b1561103e565b60008281526003602052604090206008810154610100900460ff1615610b4d5760405162461bcd60e51b81526004016103c3906113db565b60088101805461ff00191661010017905581610b6a576002610b6d565b60015b60088201805460ff19166001836002811115610b8b57610b8b611203565b0217905550600881015460405184917f661ce16e44a34377fc37c19874f4b1bec6e84b072cf8d318838fe17c20c58e4491610bcc9160ff1690600090611505565b60405180910390a2505050565b60036020526000908152604090208054600182018054919291610bfb90611412565b80601f0160208091040260200160405190810160405280929190818152602001828054610c2790611412565b8015610c745780601f10610c4957610100808354040283529160200191610c74565b820191906000526020600020905b815481529060010190602001808311610c5757829003601f168201915b505050505090806002018054610c8990611412565b80601f0160208091040260200160405190810160405280929190818152602001828054610cb590611412565b8015610d025780601f10610cd757610100808354040283529160200191610d02565b820191906000526020600020905b815481529060010190602001808311610ce557829003601f168201915b505050600384015460048501546005860154600687015460078801546008909801549697939660ff93841696509194509291818116916101009004168a565b610d4961103e565b6001600160a01b038116610d7357604051631e4fbdf760e01b8152600060048201526024016103c3565b61092081611087565b678ac7230489e80000341015610dd45760405162461bcd60e51b815260206004820152601c60248201527f4d7573742070617920313020464c52206372656174696f6e206665650000000060448201526064016103c3565b428111610e235760405162461bcd60e51b815260206004820181905260248201527f5265736f6c7574696f6e206d75737420626520696e207468652066757475726560448201526064016103c3565b600080546040516001600160a01b039091169034908381818185875af1925050503d8060008114610e70576040519150601f19603f3d011682016040523d82523d6000602084013e610e75565b606091505b5050905080610ebc5760405162461bcd60e51b8152602060048201526013602482015272119959481d1c985b9cd9995c8819985a5b1959606a1b60448201526064016103c3565b6002805460009182610ecd8361159b565b9190505590506040518061014001604052808281526020018881526020018781526020018681526020018515158152602001848152602001600081526020016000815260200160006002811115610f2657610f26611203565b815260006020918201819052838152600382526040902082518155908201516001820190610f549082611603565b5060408201516002820190610f699082611603565b5060608201516003820155608082015160048201805491151560ff1992831617905560a0830151600583015560c0830151600683015560e0830151600783015561010083015160088301805491929091166001836002811115610fce57610fce611203565b02179055506101208201518160080160016101000a81548160ff021916908315150217905550905050807f17d90d3582c74be4b748fcd33bff502fbee3da6e29c772512a0b6eac36528be88888888760405161102d94939291906116c3565b60405180910390a250505050505050565b6000546001600160a01b031633146109355760405163118cdaa760e01b81523360048201526024016103c3565b6110736110d7565b60026000805160206116fd83398151915255565b600080546001600160a01b038381166001600160a01b0319831681178455604051919092169283917f8be0079c531659141344cd1fd0a4f28419497f9722a3daafe3b4186f6b6457e09190a35050565b6000805160206116fd8339815191525460020361093557604051633ee5aeb560e01b815260040160405180910390fd5b80356001600160a01b038116811461111e57600080fd5b919050565b6000806040838503121561113657600080fd5b8235915061114660208401611107565b90509250929050565b60006020828403121561116157600080fd5b61116a82611107565b9392505050565b60006020828403121561118357600080fd5b5035919050565b8035801515811461111e57600080fd5b600080604083850312156111ad57600080fd5b823591506111466020840161118a565b6000815180845260005b818110156111e3576020818501810151868301820152016111c7565b506000602082860101526020601f19601f83011685010191505092915050565b634e487b7160e01b600052602160045260246000fd5b6003811061123757634e487b7160e01b600052602160045260246000fd5b9052565b60006101408c83528060208401526112558184018d6111bd565b90508281036040840152611269818c6111bd565b91505088606083015287151560808301528660a08301528560c08301528460e083015261129a610100830185611219565b8215156101208301529b9a5050505050505050505050565b634e487b7160e01b600052604160045260246000fd5b600082601f8301126112d957600080fd5b813567ffffffffffffffff808211156112f4576112f46112b2565b604051601f8301601f19908116603f0116810190828211818310171561131c5761131c6112b2565b8160405283815286602085880101111561133557600080fd5b836020870160208301376000602085830101528094505050505092915050565b600080600080600060a0868803121561136d57600080fd5b853567ffffffffffffffff8082111561138557600080fd5b61139189838a016112c8565b965060208801359150808211156113a757600080fd5b506113b4888289016112c8565b945050604086013592506113ca6060870161118a565b949793965091946080013592915050565b60208082526017908201527f4d61726b657420616c7265616479207265736f6c766564000000000000000000604082015260600190565b600181811c9082168061142657607f821691505b60208210810361144657634e487b7160e01b600052602260045260246000fd5b50919050565b600060208083526000845461146081611412565b80848701526040600180841660008114611481576001811461149b576114c9565b60ff1985168984015283151560051b8901830195506114c9565b896000528660002060005b858110156114c15781548b82018601529083019088016114a6565b8a0184019650505b509398975050505050505050565b6000806000606084860312156114ec57600080fd5b8351925060208401519150604084015190509250925092565b604081016115138285611219565b8260208301529392505050565b634e487b7160e01b600052601160045260246000fd5b8082018082111561154957611549611520565b92915050565b808202811582820484141761154957611549611520565b60008261158357634e487b7160e01b600052601260045260246000fd5b500490565b8181038181111561154957611549611520565b6000600182016115ad576115ad611520565b5060010190565b601f8211156115fe57600081815260208120601f850160051c810160208610156115db5750805b601f850160051c820191505b818110156115fa578281556001016115e7565b5050505b505050565b815167ffffffffffffffff81111561161d5761161d6112b2565b6116318161162b8454611412565b846115b4565b602080601f831160018114611666576000841561164e5750858301515b600019600386901b1c1916600185901b1785556115fa565b600085815260208120601f198616915b8281101561169557888601518255948401946001909101908401611676565b50858210156116b35787850151600019600388901b60f8161c191681555b5050505050600190811b01905550565b6080815260006116d660808301876111bd565b82810360208401526116e881876111bd565b60408401959095525050606001529291505056fe9b779b17422d0df92223018b32b4d1fa46e071723d6817e2486d003becc55f00a264697066735822122007e6709f76e96a56e3a6071a151b2482eda59465bf8d0eba9a762e76a44fc9f164736f6c63430008140033",
  "linkReferences": {},
  "deployedLinkReferences": {}
}