{
  "_format": "hh-sol-artifact-1",
  "contractName": "OmniPredictMarket",
  "sourceName": "contracts/OmniPredictMarket.sol",
  "abi": [
    {
      "inputs": [
        {
          "internalType": "address",
          "name": "_ftsoRegistry",
          "type": "address"
        }
      ],
      "stateMutability": "nonpayable",
      "type": "constructor"
    },
    {
      "inputs": [
        {
          "internalType": "address",
          "name": "owner",
          "type": "address"
        }
      ],
      "name": "OwnableInvalidOwner",
      "type": "error"
    },
    {
      "inputs": [
        {
          "internalType": "address",
          "name": "account",
          "type": "address"
        }
      ],
      "name": "OwnableUnauthorizedAccount",
      "type": "error"
    },
    {
      "inputs": [],
      "name": "ReentrancyGuardReentrantCall",
      "type": "error"
    },
    {
      "anonymous": false,
      "inputs": [
        {
          "indexed": true,
          "internalType": "uint256",
          "name": "marketId",
          "type": "uint256"
        },
        {
          "indexed": true,
          "internalType": "address",
          "name": "user",
          "type": "address"
        },
        {
          "indexed": false,
          "internalType": "bool",
          "name": "isYes",
          "type": "bool"
        },
        {
          "indexed": false,
          "internalType": "uint256",
          "name": "amount",
          "type": "uint256"
        }
      ],
      "name": "BetPlaced",
      "type": "event"
    },
    {
      "anonymous": false,
      "inputs": [
        {
          "indexed": true,
          "internalType": "uint256",
          "name": "marketId",
          "type": "uint256"
        },
        {
          "indexed": false,
          "internalType": "string",
          "name": "title",
          "type": "string"
        },
        {
          "indexed": false,
          "internalType": "string",
          "name": "symbol",
          "type": "string"
        },
        {
          "indexed": false,
          "internalType": "uint256",
          "name": "targetPrice",
          "type": "uint256"
        },
        {
          "indexed": false,
          "internalType": "uint256",
          "name": "resolutionTimestamp",
          "type": "uint256"
        }
      ],
      "name": "MarketCreated",
      "type": "event"
    },
    {
      "anonymous": false,
      "inputs": [
        {
          "indexed": true,
          "internalType": "uint256",
          "name": "marketId",
          "type": "uint256"
        },
        {
          "indexed": false,
          "internalType": "enum OmniPredictMarket.Outcome",
          "name": "winningOutcome",
          "type": "uint8"
        },
        {
          "indexed": false,
          "internalType": "uint256",
          "name": "finalPrice",
          "type": "uint256"
        }
      ],
      "name": "MarketResolved",
      "type": "event"
    },
    {
      "anonymous": false,
      "inputs": [
        {
          "indexed": true,
          "internalType": "address",
          "name": "previousOwner",
          "type": "address"
        },
        {
          "indexed": true,
          "internalType": "address",
          "name": "newOwner",
          "type": "address"
        }
      ],
      "name": "OwnershipTransferred",
      "type": "event"
    },
    {
      "anonymous": false,
      "inputs": [
        {
          "indexed": true,
          "internalType": "uint256",
          "name": "marketId",
          "type": "uint256"
        },
        {
          "indexed": true,
          "internalType": "address",
          "name": "user",
          "type": "address"
        },
        {
          "indexed": false,
          "internalType": "uint256",
          "name": "amount",
          "type": "uint256"
        }
      ],
      "name": "WinningsClaimed",
      "type": "event"
    },
    {
      "inputs": [
        {
          "internalType": "uint256",
          "name": "_marketId",
          "type": "uint256"
        },
        {
          "internalType": "bool",
          "name": "_isYesWinning",
          "type": "bool"
        }
      ],
      "name": "adminResolveMarket",
      "outputs": [],
      "stateMutability": "nonpayable",
      "type": "function"
    },
    {
      "inputs": [
        {
          "internalType": "uint256",
          "name": "_marketId",
          "type": "uint256"
        }
      ],
      "name": "claimWinnings",
      "outputs": [],
      "stateMutability": "nonpayable",
      "type": "function"
    },
    {
      "inputs": [
        {
          "internalType": "string",
          "name": "_title",
          "type": "string"
        },
        {
          "internalType": "string",
          "name": "_symbol",
          "type": "string"
        },
        {
          "internalType": "uint256",
          "name": "_targetPrice",
          "type": "uint256"
        },
        {
          "internalType": "bool",
          "name": "_isAbove",
          "type": "bool"
        },
        {
          "internalType": "uint256",
          "name": "_resolutionTimestamp",
          "type": "uint256"
        }
      ],
      "name": "createMarket",
      "outputs": [],
      "stateMutability": "nonpayable",
      "type": "function"
    },
    {
      "inputs": [],
      "name": "ftsoRegistry",
      "outputs": [
        {
          "internalType": "contract IFtsoRegistry",
          "name": "",
          "type": "address"
        }
      ],
      "stateMutability": "view",
      "type": "function"
    },
    {
      "inputs": [
        {
          "internalType": "uint256",
          "name": "",
          "type": "uint256"
        },
        {
          "internalType": "address",
          "name": "",
          "type": "address"
        }
      ],
      "name": "hasClaimed",
      "outputs": [
        {
          "internalType": "bool",
          "name": "",
          "type": "bool"
        }
      ],
      "stateMutability": "view",
      "type": "function"
    },
    {
      "inputs": [],
      "name": "marketCount",
      "outputs": [
        {
          "internalType": "uint256",
          "name": "",
          "type": "uint256"
        }
      ],
      "stateMutability": "view",
      "type": "function"
    },
    {
      "inputs": [
        {
          "internalType": "uint256",
          "name": "",
          "type": "uint256"
        }
      ],
      "name": "markets",
      "outputs": [
        {
          "internalType": "uint256",
          "name": "id",
          "type": "uint256"
        },
        {
          "internalType": "string",
          "name": "title",
          "type": "string"
        },
        {
          "internalType": "string",
          "name": "symbol",
          "type": "string"
        },
        {
          "internalType": "uint256",
          "name": "targetPrice",
          "type": "uint256"
        },
        {
          "internalType": "bool",
          "name": "isAbove",
          "type": "bool"
        },
        {
          "internalType": "uint256",
          "name": "resolutionTimestamp",
          "type": "uint256"
        },
        {
          "internalType": "uint256",
          "name": "yesPool",
          "type": "uint256"
        },
        {
          "internalType": "uint256",
          "name": "noPool",
          "type": "uint256"
        },
        {
          "internalType": "enum OmniPredictMarket.Outcome",
          "name": "winningOutcome",
          "type": "uint8"
        },
        {
          "internalType": "bool",
          "name": "resolved",
          "type": "bool"
        }
      ],
      "stateMutability": "view",
      "type": "function"
    },
    {
      "inputs": [
        {
          "internalType": "uint256",
          "name": "",
          "type": "uint256"
        },
        {
          "internalType": "address",
          "name": "",
          "type": "address"
        }
      ],
      "name": "noBets",
      "outputs": [
        {
          "internalType": "uint256",
          "name": "",
          "type": "uint256"
        }
      ],
      "stateMutability": "view",
      "type": "function"
    },
    {
      "inputs": [],
      "name": "owner",
      "outputs": [
        {
          "internalType": "address",
          "name": "",
          "type": "address"
        }
      ],
      "stateMutability": "view",
      "type": "function"
    },
    {
      "inputs": [
        {
          "internalType": "uint256",
          "name": "_marketId",
          "type": "uint256"
        },
        {
          "internalType": "bool",
          "name": "_isYes",
          "type": "bool"
        }
      ],
      "name": "placeBet",
      "outputs": [],
      "stateMutability": "payable",
      "type": "function"
    },
    {
      "inputs": [],
      "name": "renounceOwnership",
      "outputs": [],
      "stateMutability": "nonpayable",
      "type": "function"
    },
    {
      "inputs": [
        {
          "internalType": "uint256",
          "name": "_marketId",
          "type": "uint256"
        }
      ],
      "name": "resolveMarket",
      "outputs": [],
      "stateMutability": "nonpayable",
      "type": "function"
    },
    {
      "inputs": [
        {
          "internalType": "address",
          "name": "_newRegistry",
          "type": "address"
        }
      ],
      "name": "setFtsoRegistry",
      "outputs": [],
      "stateMutability": "nonpayable",
      "type": "function"
    },
    {
      "inputs": [
        {
          "internalType": "address",
          "name": "newOwner",
          "type": "address"
        }
      ],
      "name": "transferOwnership",
      "outputs": [],
      "stateMutability": "nonpayable",
      "type": "function"
    },
    {
      "inputs": [
        {
          "internalType": "uint256",
          "name": "",
          "type": "uint256"
        },
        {
          "internalType": "address",
          "name": "",
          "type": "address"
        }
      ],
      "name": "yesBets",
      "outputs": [
        {
          "internalType": "uint256",
          "name": "",
          "type": "uint256"
        }
      ],
      "stateMutability": "view",
      "type": "function"
    }
  ],
  "bytecode": "0x608060405234801561001057600080fd5b5060405161178538038061178583398101604081905261002f916100f8565b338061005557604051631e4fbdf760e01b81526000600482015260240160405180910390fd5b61005e816100a8565b5060017f9b779b17422d0df92223018b32b4d1fa46e071723d6817e2486d003becc55f0055600180546001600160a01b0319166001600160a01b0392909216919091179055610128565b600080546001600160a01b038381166001600160a01b0319831681178455604051919092169283917f8be0079c531659141344cd1fd0a4f28419497f9722a3daafe3b4186f6b6457e09190a35050565b60006020828403121561010a57600080fd5b81516001600160a01b038116811461012157600080fd5b9392505050565b61164e806101376000396000f3fe6080604052600436106100e85760003560e01c8063873f6f9e1161008a578063b1283e7711610059578063b1283e77146102bb578063ec979082146102f1578063f2fde38b14610307578063f5eb75a41461032757600080fd5b8063873f6f9e1461021f5780638da5cb5b1461026a5780639ed9c74d14610288578063ae279bb71461029b57600080fd5b80635fc56014116100c65780635fc56014146101a85780636399d03d146101ca578063677bd9ff146101ea578063715018a61461020a57600080fd5b8063155e4b82146100ed578063354c61991461013857806338b5f86914610170575b600080fd5b3480156100f957600080fd5b5061012561010836600461101f565b600560209081526000928352604080842090915290825290205481565b6040519081526020015b60405180910390f35b34801561014457600080fd5b5061012561015336600461101f565b600460209081526000928352604080842090915290825290205481565b34801561017c57600080fd5b50600154610190906001600160a01b031681565b6040516001600160a01b03909116815260200161012f565b3480156101b457600080fd5b506101c86101c336600461104b565b610347565b005b3480156101d657600080fd5b506101c86101e536600461106d565b610371565b3480156101f657600080fd5b506101c861020536600461106d565b610528565b34801561021657600080fd5b506101c8610909565b34801561022b57600080fd5b5061025a61023a36600461101f565b600660209081526000928352604080842090915290825290205460ff1681565b604051901515815260200161012f565b34801561027657600080fd5b506000546001600160a01b0316610190565b6101c8610296366004611096565b61091d565b3480156102a757600080fd5b506101c86102b6366004611096565b610af3565b3480156102c757600080fd5b506102db6102d636600461106d565b610bbf565b60405161012f9a99989796959493929190611137565b3480156102fd57600080fd5b5061012560025481565b34801561031357600080fd5b506101c861032236600461104b565b610d27565b34801561033357600080fd5b506101c8610342366004611251565b610d62565b61034f610f3a565b600180546001600160a01b0319166001600160a01b0392909216919091179055565b60008181526003602052604090206008810154610100900460ff16156103b25760405162461bcd60e51b81526004016103a9906112d7565b60405180910390fd5b80600501544210156103fd5760405162461bcd60e51b8152602060048201526014602482015273546f6f206561726c7920746f207265736f6c766560601b60448201526064016103a9565b60015460405163534d7ee360e11b81526000916001600160a01b03169063a69afdc690610431906002860190600401611348565b606060405180830381865afa15801561044e573d6000803e3d6000fd5b505050506040513d601f19601f8201168201806040525081019061047291906113d3565b5050600483015490915060009060ff16610492578260030154821061049a565b826003015482115b60088401805461ff0019166101001790559050806104b95760026104bc565b60015b60088401805460ff191660018360028111156104da576104da6110ff565b0217905550600883015460405185917f661ce16e44a34377fc37c19874f4b1bec6e84b072cf8d318838fe17c20c58e449161051a9160ff16908690611401565b60405180910390a250505050565b610530610f67565b60008181526003602052604090206008810154610100900460ff166105975760405162461bcd60e51b815260206004820152601760248201527f4d61726b6574206e6f74207265736f6c7665642079657400000000000000000060448201526064016103a9565b600082815260066020908152604080832033845290915290205460ff16156105f35760405162461bcd60e51b815260206004820152600f60248201526e105b1c9958591e4818db185a5b5959608a1b60448201526064016103a9565b6000808260070154836006015461060a9190611432565b90506001600884015460ff166002811115610627576106276110ff565b036106a6576000848152600460209081526040808320338452909152902054806106855760405162461bcd60e51b815260206004820152600f60248201526e4e6f2077696e6e696e67206265747360881b60448201526064016103a9565b6006840154610694838361144b565b61069e9190611462565b92505061073c565b6002600884015460ff1660028111156106c1576106c16110ff565b0361073c5760008481526005602090815260408083203384529091529020548061071f5760405162461bcd60e51b815260206004820152600f60248201526e4e6f2077696e6e696e67206265747360881b60448201526064016103a9565b600784015461072e838361144b565b6107389190611462565b9250505b60008481526006602090815260408083203384529091528120805460ff19166001179055606461076d84600261144b565b6107779190611462565b905060006107858285611484565b9050811561082857600080546040516001600160a01b039091169084908381818185875af1925050503d80600081146107da576040519150601f19603f3d011682016040523d82523d6000602084013e6107df565b606091505b50509050806108265760405162461bcd60e51b8152602060048201526013602482015272119959481d1c985b9cd9995c8819985a5b1959606a1b60448201526064016103a9565b505b604051600090339083908381818185875af1925050503d806000811461086a576040519150601f19603f3d011682016040523d82523d6000602084013e61086f565b606091505b50509050806108b25760405162461bcd60e51b815260206004820152600f60248201526e151c985b9cd9995c8819985a5b1959608a1b60448201526064016103a9565b604051828152339088907f5380cf6fe903b40c6d5a9e0dfbca2f3a423f0a21520b4d5947ed5169bdba946d9060200160405180910390a350505050505061090660016000805160206115f983398151915255565b50565b610911610f3a565b61091b6000610f83565b565b610925610f67565b6000341161097f5760405162461bcd60e51b815260206004820152602160248201527f42657420616d6f756e74206d7573742062652067726561746572207468616e206044820152600360fc1b60648201526084016103a9565b60008281526003602052604090206008810154610100900460ff16156109b75760405162461bcd60e51b81526004016103a9906112d7565b806005015442106109fe5760405162461bcd60e51b8152602060048201526011602482015270151c98591a5b99c81a5cc818db1bdcd959607a1b60448201526064016103a9565b8115610a515734816006016000828254610a189190611432565b9091555050600083815260046020908152604080832033845290915281208054349290610a46908490611432565b90915550610a999050565b34816007016000828254610a659190611432565b9091555050600083815260056020908152604080832033845290915281208054349290610a93908490611432565b90915550505b604080518315158152346020820152339185917f4af71b021e799c62c158bd54636ca8da2fa26115a21a2dc6efe486ec104fd15f910160405180910390a350610aef60016000805160206115f983398151915255565b5050565b610afb610f3a565b60008281526003602052604090206008810154610100900460ff1615610b335760405162461bcd60e51b81526004016103a9906112d7565b60088101805461ff00191661010017905581610b50576002610b53565b60015b60088201805460ff19166001836002811115610b7157610b716110ff565b0217905550600881015460405184917f661ce16e44a34377fc37c19874f4b1bec6e84b072cf8d318838fe17c20c58e4491610bb29160ff1690600090611401565b60405180910390a2505050565b60036020526000908152604090208054600182018054919291610be19061130e565b80601f0160208091040260200160405190810160405280929190818152602001828054610c0d9061130e565b8015610c5a5780601f10610c2f57610100808354040283529160200191610c5a565b820191906000526020600020905b815481529060010190602001808311610c3d57829003601f168201915b505050505090806002018054610c6f9061130e565b80601f0160208091040260200160405190810160405280929190818152602001828054610c9b9061130e565b8015610ce85780601f10610cbd57610100808354040283529160200191610ce8565b820191906000526020600020905b815481529060010190602001808311610ccb57829003601f168201915b505050600384015460048501546005860154600687015460078801546008909801549697939660ff93841696509194509291818116916101009004168a565b610d2f610f3a565b6001600160a01b038116610d5957604051631e4fbdf760e01b8152600060048201526024016103a9565b61090681610f83565b610d6a610f3a565b428111610db95760405162461bcd60e51b815260206004820181905260248201527f5265736f6c7574696f6e206d75737420626520696e207468652066757475726560448201526064016103a9565b6002805460009182610dca83611497565b9190505590506040518061014001604052808281526020018781526020018681526020018581526020018415158152602001838152602001600081526020016000815260200160006002811115610e2357610e236110ff565b815260006020918201819052838152600382526040902082518155908201516001820190610e5190826114ff565b5060408201516002820190610e6690826114ff565b5060608201516003820155608082015160048201805491151560ff1992831617905560a0830151600583015560c0830151600683015560e0830151600783015561010083015160088301805491929091166001836002811115610ecb57610ecb6110ff565b02179055506101208201518160080160016101000a81548160ff021916908315150217905550905050807f17d90d3582c74be4b748fcd33bff502fbee3da6e29c772512a0b6eac36528be887878786604051610f2a94939291906115bf565b60405180910390a2505050505050565b6000546001600160a01b0316331461091b5760405163118cdaa760e01b81523360048201526024016103a9565b610f6f610fd3565b60026000805160206115f983398151915255565b600080546001600160a01b038381166001600160a01b0319831681178455604051919092169283917f8be0079c531659141344cd1fd0a4f28419497f9722a3daafe3b4186f6b6457e09190a35050565b6000805160206115f98339815191525460020361091b57604051633ee5aeb560e01b815260040160405180910390fd5b80356001600160a01b038116811461101a57600080fd5b919050565b6000806040838503121561103257600080fd5b8235915061104260208401611003565b90509250929050565b60006020828403121561105d57600080fd5b61106682611003565b9392505050565b60006020828403121561107f57600080fd5b5035919050565b8035801515811461101a57600080fd5b600080604083850312156110a957600080fd5b8235915061104260208401611086565b6000815180845260005b818110156110df576020818501810151868301820152016110c3565b506000602082860101526020601f19601f83011685010191505092915050565b634e487b7160e01b600052602160045260246000fd5b6003811061113357634e487b7160e01b600052602160045260246000fd5b9052565b60006101408c83528060208401526111518184018d6110b9565b90508281036040840152611165818c6110b9565b91505088606083015287151560808301528660a08301528560c08301528460e0830152611196610100830185611115565b8215156101208301529b9a5050505050505050505050565b634e487b7160e01b600052604160045260246000fd5b600082601f8301126111d557600080fd5b813567ffffffffffffffff808211156111f0576111f06111ae565b604051601f8301601f19908116603f01168101908282118183101715611218576112186111ae565b8160405283815286602085880101111561123157600080fd5b836020870160208301376000602085830101528094505050505092915050565b600080600080600060a0868803121561126957600080fd5b853567ffffffffffffffff8082111561128157600080fd5b61128d89838a016111c4565b965060208801359150808211156112a357600080fd5b506112b0888289016111c4565b945050604086013592506112c660608701611086565b949793965091946080013592915050565b60208082526017908201527f4d61726b657420616c7265616479207265736f6c766564000000000000000000604082015260600190565b600181811c9082168061132257607f821691505b60208210810361134257634e487b7160e01b600052602260045260246000fd5b50919050565b600060208083526000845461135c8161130e565b8084870152604060018084166000811461137d5760018114611397576113c5565b60ff1985168984015283151560051b8901830195506113c5565b896000528660002060005b858110156113bd5781548b82018601529083019088016113a2565b8a0184019650505b509398975050505050505050565b6000806000606084860312156113e857600080fd5b8351925060208401519150604084015190509250925092565b6040810161140f8285611115565b8260208301529392505050565b634e487b7160e01b600052601160045260246000fd5b808201808211156114455761144561141c565b92915050565b80820281158282048414176114455761144561141c565b60008261147f57634e487b7160e01b600052601260045260246000fd5b500490565b818103818111156114455761144561141c565b6000600182016114a9576114a961141c565b5060010190565b601f8211156114fa57600081815260208120601f850160051c810160208610156114d75750805b601f850160051c820191505b818110156114f6578281556001016114e3565b5050505b505050565b815167ffffffffffffffff811115611519576115196111ae565b61152d81611527845461130e565b846114b0565b602080601f831160018114611562576000841561154a5750858301515b600019600386901b1c1916600185901b1785556114f6565b600085815260208120601f198616915b8281101561159157888601518255948401946001909101908401611572565b50858210156115af5787850151600019600388901b60f8161c191681555b5050505050600190811b01905550565b6080815260006115d260808301876110b9565b82810360208401526115e481876110b9565b60408401959095525050606001529291505056fe9b779b17422d0df92223018b32b4d1fa46e071723d6817e2486d003becc55f00a2646970667358221220a5912f97fb7c739e74a7e5673ab64b67acc33b2672c9416f8d62453d0d77bfce64736f6c63430008140033",
  "linkReferences": {},
  "deployedLinkReferences": {}
}