{
  "_format": "hh-sol-artifact-1",
  "contractName": "OmniPredictMarket",
  "sourceName": "contracts/OmniPredictMarket.sol",
  "abi": [
    {
      "inputs": [
        {
          "internalType": "address",
          "name": "_ftsoRegistry",
          "type": "address"
        }
      ],
      "stateMutability": "nonpayable",
      "type": "constructor"
    },
    {
      "inputs": [
        {
          "internalType": "address",
          "name": "owner",
          "type": "address"
        }
      ],
      "name": "OwnableInvalidOwner",
      "type": "error"
    },
    {
      "inputs": [
        {
          "internalType": "address",
          "name": "account",
          "type": "address"
        }
      ],
      "name": "OwnableUnauthorizedAccount",
      "type": "error"
    },
    {
      "inputs": [],
      "name": "ReentrancyGuardReentrantCall",
      "type": "error"
    },
    {
      "anonymous": false,
      "inputs": [
        {
          "indexed": true,
          "internalType": "uint256",
          "name": "marketId",
          "type": "uint256"
        },
        {
          "indexed": true,
          "internalType": "address",
          "name": "user",
          "type": "address"
        },
        {
          "indexed": false,
          "internalType": "bool",
          "name": "isYes",
          "type": "bool"
        },
        {
          "indexed": false,
          "internalType": "uint256",
          "name": "amount",
          "type": "uint256"
        }
      ],
      "name": "BetPlaced",
      "type": "event"
    },
    {
      "anonymous": false,
      "inputs": [
        {
          "indexed": true,
          "internalType": "uint256",
          "name": "marketId",
          "type": "uint256"
        },
        {
          "indexed": false,
          "internalType": "string",
          "name": "title",
          "type": "string"
        },
        {
          "indexed": false,
          "internalType": "string",
          "name": "symbol",
          "type": "string"
        },
        {
          "indexed": false,
          "internalType": "uint256",
          "name": "targetPrice",
          "type": "uint256"
        },
        {
          "indexed": false,
          "internalType": "uint256",
          "name": "resolutionTimestamp",
          "type": "uint256"
        }
      ],
      "name": "MarketCreated",
      "type": "event"
    },
    {
      "anonymous": false,
      "inputs": [
        {
          "indexed": true,
          "internalType": "uint256",
          "name": "marketId",
          "type": "uint256"
        },
        {
          "indexed": false,
          "internalType": "enum OmniPredictMarket.Outcome",
          "name": "winningOutcome",
          "type": "uint8"
        },
        {
          "indexed": false,
          "internalType": "uint256",
          "name": "finalPrice",
          "type": "uint256"
        }
      ],
      "name": "MarketResolved",
      "type": "event"
    },
    {
      "anonymous": false,
      "inputs": [
        {
          "indexed": true,
          "internalType": "address",
          "name": "previousOwner",
          "type": "address"
        },
        {
          "indexed": true,
          "internalType": "address",
          "name": "newOwner",
          "type": "address"
        }
      ],
      "name": "OwnershipTransferred",
      "type": "event"
    },
    {
      "anonymous": false,
      "inputs": [
        {
          "indexed": true,
          "internalType": "uint256",
          "name": "marketId",
          "type": "uint256"
        },
        {
          "indexed": true,
          "internalType": "address",
          "name": "user",
          "type": "address"
        },
        {
          "indexed": false,
          "internalType": "uint256",
          "name": "amount",
          "type": "uint256"
        }
      ],
      "name": "WinningsClaimed",
      "type": "event"
    },
    {
      "inputs": [
        {
          "internalType": "uint256",
          "name": "_marketId",
          "type": "uint256"
        }
      ],
      "name": "claimWinnings",
      "outputs": [],
      "stateMutability": "nonpayable",
      "type": "function"
    },
    {
      "inputs": [
        {
          "internalType": "string",
          "name": "_title",
          "type": "string"
        },
        {
          "internalType": "string",
          "name": "_symbol",
          "type": "string"
        },
        {
          "internalType": "uint256",
          "name": "_targetPrice",
          "type": "uint256"
        },
        {
          "internalType": "bool",
          "name": "_isAbove",
          "type": "bool"
        },
        {
          "internalType": "uint256",
          "name": "_resolutionTimestamp",
          "type": "uint256"
        }
      ],
      "name": "createMarket",
      "outputs": [],
      "stateMutability": "nonpayable",
      "type": "function"
    },
    {
      "inputs": [],
      "name": "ftsoRegistry",
      "outputs": [
        {
          "internalType": "contract IFtsoRegistry",
          "name": "",
          "type": "address"
        }
      ],
      "stateMutability": "view",
      "type": "function"
    },
    {
      "inputs": [
        {
          "internalType": "uint256",
          "name": "",
          "type": "uint256"
        },
        {
          "internalType": "address",
          "name": "",
          "type": "address"
        }
      ],
      "name": "hasClaimed",
      "outputs": [
        {
          "internalType": "bool",
          "name": "",
          "type": "bool"
        }
      ],
      "stateMutability": "view",
      "type": "function"
    },
    {
      "inputs": [],
      "name": "marketCount",
      "outputs": [
        {
          "internalType": "uint256",
          "name": "",
          "type": "uint256"
        }
      ],
      "stateMutability": "view",
      "type": "function"
    },
    {
      "inputs": [
        {
          "internalType": "uint256",
          "name": "",
          "type": "uint256"
        }
      ],
      "name": "markets",
      "outputs": [
        {
          "internalType": "uint256",
          "name": "id",
          "type": "uint256"
        },
        {
          "internalType": "string",
          "name": "title",
          "type": "string"
        },
        {
          "internalType": "string",
          "name": "symbol",
          "type": "string"
        },
        {
          "internalType": "uint256",
          "name": "targetPrice",
          "type": "uint256"
        },
        {
          "internalType": "bool",
          "name": "isAbove",
          "type": "bool"
        },
        {
          "internalType": "uint256",
          "name": "resolutionTimestamp",
          "type": "uint256"
        },
        {
          "internalType": "uint256",
          "name": "yesPool",
          "type": "uint256"
        },
        {
          "internalType": "uint256",
          "name": "noPool",
          "type": "uint256"
        },
        {
          "internalType": "enum OmniPredictMarket.Outcome",
          "name": "winningOutcome",
          "type": "uint8"
        },
        {
          "internalType": "bool",
          "name": "resolved",
          "type": "bool"
        }
      ],
      "stateMutability": "view",
      "type": "function"
    },
    {
      "inputs": [
        {
          "internalType": "uint256",
          "name": "",
          "type": "uint256"
        },
        {
          "internalType": "address",
          "name": "",
          "type": "address"
        }
      ],
      "name": "noBets",
      "outputs": [
        {
          "internalType": "uint256",
          "name": "",
          "type": "uint256"
        }
      ],
      "stateMutability": "view",
      "type": "function"
    },
    {
      "inputs": [],
      "name": "owner",
      "outputs": [
        {
          "internalType": "address",
          "name": "",
          "type": "address"
        }
      ],
      "stateMutability": "view",
      "type": "function"
    },
    {
      "inputs": [
        {
          "internalType": "uint256",
          "name": "_marketId",
          "type": "uint256"
        },
        {
          "internalType": "bool",
          "name": "_isYes",
          "type": "bool"
        }
      ],
      "name": "placeBet",
      "outputs": [],
      "stateMutability": "payable",
      "type": "function"
    },
    {
      "inputs": [],
      "name": "renounceOwnership",
      "outputs": [],
      "stateMutability": "nonpayable",
      "type": "function"
    },
    {
      "inputs": [
        {
          "internalType": "uint256",
          "name": "_marketId",
          "type": "uint256"
        }
      ],
      "name": "resolveMarket",
      "outputs": [],
      "stateMutability": "nonpayable",
      "type": "function"
    },
    {
      "inputs": [
        {
          "internalType": "address",
          "name": "_newRegistry",
          "type": "address"
        }
      ],
      "name": "setFtsoRegistry",
      "outputs": [],
      "stateMutability": "nonpayable",
      "type": "function"
    },
    {
      "inputs": [
        {
          "internalType": "address",
          "name": "newOwner",
          "type": "address"
        }
      ],
      "name": "transferOwnership",
      "outputs": [],
      "stateMutability": "nonpayable",
      "type": "function"
    },
    {
      "inputs": [
        {
          "internalType": "uint256",
          "name": "",
          "type": "uint256"
        },
        {
          "internalType": "address",
          "name": "",
          "type": "address"
        }
      ],
      "name": "yesBets",
      "outputs": [
        {
          "internalType": "uint256",
          "name": "",
          "type": "uint256"
        }
      ],
      "stateMutability": "view",
      "type": "function"
    }
  ],
  "bytecode": "0x608060405234801561001057600080fd5b506040516115c43803806115c483398101604081905261002f916100f8565b338061005557604051631e4fbdf760e01b81526000600482015260240160405180910390fd5b61005e816100a8565b5060017f9b779b17422d0df92223018b32b4d1fa46e071723d6817e2486d003becc55f0055600180546001600160a01b0319166001600160a01b0392909216919091179055610128565b600080546001600160a01b038381166001600160a01b0319831681178455604051919092169283917f8be0079c531659141344cd1fd0a4f28419497f9722a3daafe3b4186f6b6457e09190a35050565b60006020828403121561010a57600080fd5b81516001600160a01b038116811461012157600080fd5b9392505050565b61148d806101376000396000f3fe6080604052600436106100dd5760003560e01c8063873f6f9e1161007f578063b1283e7711610059578063b1283e7714610290578063ec979082146102c6578063f2fde38b146102dc578063f5eb75a4146102fc57600080fd5b8063873f6f9e146102145780638da5cb5b1461025f5780639ed9c74d1461027d57600080fd5b80635fc56014116100bb5780635fc560141461019d5780636399d03d146101bf578063677bd9ff146101df578063715018a6146101ff57600080fd5b8063155e4b82146100e2578063354c61991461012d57806338b5f86914610165575b600080fd5b3480156100ee57600080fd5b5061011a6100fd366004610ea8565b600560209081526000928352604080842090915290825290205481565b6040519081526020015b60405180910390f35b34801561013957600080fd5b5061011a610148366004610ea8565b600460209081526000928352604080842090915290825290205481565b34801561017157600080fd5b50600154610185906001600160a01b031681565b6040516001600160a01b039091168152602001610124565b3480156101a957600080fd5b506101bd6101b8366004610ed4565b61031c565b005b3480156101cb57600080fd5b506101bd6101da366004610ef6565b610346565b3480156101eb57600080fd5b506101bd6101fa366004610ef6565b610523565b34801561020b57600080fd5b506101bd610834565b34801561022057600080fd5b5061024f61022f366004610ea8565b600660209081526000928352604080842090915290825290205460ff1681565b6040519015158152602001610124565b34801561026b57600080fd5b506000546001600160a01b0316610185565b6101bd61028b366004610f1f565b610848565b34801561029c57600080fd5b506102b06102ab366004610ef6565b610a48565b6040516101249a99989796959493929190610fc0565b3480156102d257600080fd5b5061011a60025481565b3480156102e857600080fd5b506101bd6102f7366004610ed4565b610bb0565b34801561030857600080fd5b506101bd6103173660046110da565b610beb565b610324610dc3565b600180546001600160a01b0319166001600160a01b0392909216919091179055565b60008181526003602052604090206008810154610100900460ff16156103ad5760405162461bcd60e51b815260206004820152601760248201527613585c9ad95d08185b1c9958591e481c995cdbdb1d9959604a1b60448201526064015b60405180910390fd5b80600501544210156103f85760405162461bcd60e51b8152602060048201526014602482015273546f6f206561726c7920746f207265736f6c766560601b60448201526064016103a4565b60015460405163534d7ee360e11b81526000916001600160a01b03169063a69afdc69061042c90600286019060040161119a565b606060405180830381865afa158015610449573d6000803e3d6000fd5b505050506040513d601f19601f8201168201806040525081019061046d9190611225565b5050600483015490915060009060ff1661048d5782600301548210610495565b826003015482115b60088401805461ff0019166101001790559050806104b45760026104b7565b60015b60088401805460ff191660018360028111156104d5576104d5610f88565b0217905550600883015460405185917f661ce16e44a34377fc37c19874f4b1bec6e84b072cf8d318838fe17c20c58e44916105159160ff16908690611253565b60405180910390a250505050565b61052b610df0565b60008181526003602052604090206008810154610100900460ff166105925760405162461bcd60e51b815260206004820152601760248201527f4d61726b6574206e6f74207265736f6c7665642079657400000000000000000060448201526064016103a4565b600082815260066020908152604080832033845290915290205460ff16156105ee5760405162461bcd60e51b815260206004820152600f60248201526e105b1c9958591e4818db185a5b5959608a1b60448201526064016103a4565b600080826007015483600601546106059190611284565b90506001600884015460ff16600281111561062257610622610f88565b036106a1576000848152600460209081526040808320338452909152902054806106805760405162461bcd60e51b815260206004820152600f60248201526e4e6f2077696e6e696e67206265747360881b60448201526064016103a4565b600684015461068f838361129d565b61069991906112b4565b925050610737565b6002600884015460ff1660028111156106bc576106bc610f88565b036107375760008481526005602090815260408083203384529091529020548061071a5760405162461bcd60e51b815260206004820152600f60248201526e4e6f2077696e6e696e67206265747360881b60448201526064016103a4565b6007840154610729838361129d565b61073391906112b4565b9250505b6000848152600660209081526040808320338085529252808320805460ff191660011790555184908381818185875af1925050503d8060008114610797576040519150601f19603f3d011682016040523d82523d6000602084013e61079c565b606091505b50509050806107df5760405162461bcd60e51b815260206004820152600f60248201526e151c985b9cd9995c8819985a5b1959608a1b60448201526064016103a4565b604051838152339086907f5380cf6fe903b40c6d5a9e0dfbca2f3a423f0a21520b4d5947ed5169bdba946d9060200160405180910390a350505050610831600160008051602061143883398151915255565b50565b61083c610dc3565b6108466000610e0c565b565b610850610df0565b600034116108aa5760405162461bcd60e51b815260206004820152602160248201527f42657420616d6f756e74206d7573742062652067726561746572207468616e206044820152600360fc1b60648201526084016103a4565b60008281526003602052604090206008810154610100900460ff161561090c5760405162461bcd60e51b815260206004820152601760248201527613585c9ad95d08185b1c9958591e481c995cdbdb1d9959604a1b60448201526064016103a4565b806005015442106109535760405162461bcd60e51b8152602060048201526011602482015270151c98591a5b99c81a5cc818db1bdcd959607a1b60448201526064016103a4565b81156109a6573481600601600082825461096d9190611284565b909155505060008381526004602090815260408083203384529091528120805434929061099b908490611284565b909155506109ee9050565b348160070160008282546109ba9190611284565b90915550506000838152600560209081526040808320338452909152812080543492906109e8908490611284565b90915550505b604080518315158152346020820152339185917f4af71b021e799c62c158bd54636ca8da2fa26115a21a2dc6efe486ec104fd15f910160405180910390a350610a44600160008051602061143883398151915255565b5050565b60036020526000908152604090208054600182018054919291610a6a90611160565b80601f0160208091040260200160405190810160405280929190818152602001828054610a9690611160565b8015610ae35780601f10610ab857610100808354040283529160200191610ae3565b820191906000526020600020905b815481529060010190602001808311610ac657829003601f168201915b505050505090806002018054610af890611160565b80601f0160208091040260200160405190810160405280929190818152602001828054610b2490611160565b8015610b715780601f10610b4657610100808354040283529160200191610b71565b820191906000526020600020905b815481529060010190602001808311610b5457829003601f168201915b505050600384015460048501546005860154600687015460078801546008909801549697939660ff93841696509194509291818116916101009004168a565b610bb8610dc3565b6001600160a01b038116610be257604051631e4fbdf760e01b8152600060048201526024016103a4565b61083181610e0c565b610bf3610dc3565b428111610c425760405162461bcd60e51b815260206004820181905260248201527f5265736f6c7574696f6e206d75737420626520696e207468652066757475726560448201526064016103a4565b6002805460009182610c53836112d6565b9190505590506040518061014001604052808281526020018781526020018681526020018581526020018415158152602001838152602001600081526020016000815260200160006002811115610cac57610cac610f88565b815260006020918201819052838152600382526040902082518155908201516001820190610cda908261133e565b5060408201516002820190610cef908261133e565b5060608201516003820155608082015160048201805491151560ff1992831617905560a0830151600583015560c0830151600683015560e0830151600783015561010083015160088301805491929091166001836002811115610d5457610d54610f88565b02179055506101208201518160080160016101000a81548160ff021916908315150217905550905050807f17d90d3582c74be4b748fcd33bff502fbee3da6e29c772512a0b6eac36528be887878786604051610db394939291906113fe565b60405180910390a2505050505050565b6000546001600160a01b031633146108465760405163118cdaa760e01b81523360048201526024016103a4565b610df8610e5c565b600260008051602061143883398151915255565b600080546001600160a01b038381166001600160a01b0319831681178455604051919092169283917f8be0079c531659141344cd1fd0a4f28419497f9722a3daafe3b4186f6b6457e09190a35050565b6000805160206114388339815191525460020361084657604051633ee5aeb560e01b815260040160405180910390fd5b80356001600160a01b0381168114610ea357600080fd5b919050565b60008060408385031215610ebb57600080fd5b82359150610ecb60208401610e8c565b90509250929050565b600060208284031215610ee657600080fd5b610eef82610e8c565b9392505050565b600060208284031215610f0857600080fd5b5035919050565b80358015158114610ea357600080fd5b60008060408385031215610f3257600080fd5b82359150610ecb60208401610f0f565b6000815180845260005b81811015610f6857602081850181015186830182015201610f4c565b506000602082860101526020601f19601f83011685010191505092915050565b634e487b7160e01b600052602160045260246000fd5b60038110610fbc57634e487b7160e01b600052602160045260246000fd5b9052565b60006101408c8352806020840152610fda8184018d610f42565b90508281036040840152610fee818c610f42565b91505088606083015287151560808301528660a08301528560c08301528460e083015261101f610100830185610f9e565b8215156101208301529b9a5050505050505050505050565b634e487b7160e01b600052604160045260246000fd5b600082601f83011261105e57600080fd5b813567ffffffffffffffff8082111561107957611079611037565b604051601f8301601f19908116603f011681019082821181831017156110a1576110a1611037565b816040528381528660208588010111156110ba57600080fd5b836020870160208301376000602085830101528094505050505092915050565b600080600080600060a086880312156110f257600080fd5b853567ffffffffffffffff8082111561110a57600080fd5b61111689838a0161104d565b9650602088013591508082111561112c57600080fd5b506111398882890161104d565b9450506040860135925061114f60608701610f0f565b949793965091946080013592915050565b600181811c9082168061117457607f821691505b60208210810361119457634e487b7160e01b600052602260045260246000fd5b50919050565b60006020808352600084546111ae81611160565b808487015260406001808416600081146111cf57600181146111e957611217565b60ff1985168984015283151560051b890183019550611217565b896000528660002060005b8581101561120f5781548b82018601529083019088016111f4565b8a0184019650505b509398975050505050505050565b60008060006060848603121561123a57600080fd5b8351925060208401519150604084015190509250925092565b604081016112618285610f9e565b8260208301529392505050565b634e487b7160e01b600052601160045260246000fd5b808201808211156112975761129761126e565b92915050565b80820281158282048414176112975761129761126e565b6000826112d157634e487b7160e01b600052601260045260246000fd5b500490565b6000600182016112e8576112e861126e565b5060010190565b601f82111561133957600081815260208120601f850160051c810160208610156113165750805b601f850160051c820191505b8181101561133557828155600101611322565b5050505b505050565b815167ffffffffffffffff81111561135857611358611037565b61136c816113668454611160565b846112ef565b602080601f8311600181146113a157600084156113895750858301515b600019600386901b1c1916600185901b178555611335565b600085815260208120601f198616915b828110156113d0578886015182559484019460019091019084016113b1565b50858210156113ee5787850151600019600388901b60f8161c191681555b5050505050600190811b01905550565b6080815260006114116080830187610f42565b82810360208401526114238187610f42565b60408401959095525050606001529291505056fe9b779b17422d0df92223018b32b4d1fa46e071723d6817e2486d003becc55f00a264697066735822122038baf22dde4a986e5720b2ffac687a0895aab50d8ad65d434926aeda9b28ac9464736f6c63430008140033",
  "linkReferences": {},
  "deployedLinkReferences": {}
}