{
  "_format": "hh-sol-artifact-1",
  "contractName": "MockFTSORegistry",
  "sourceName": "contracts/MockFTSO.sol",
  "abi": [
    {
      "inputs": [
        {
          "internalType": "string",
          "name": "",
          "type": "string"
        }
      ],
      "name": "decimals",
      "outputs": [
        {
          "internalType": "uint256",
          "name": "",
          "type": "uint256"
        }
      ],
      "stateMutability": "view",
      "type": "function"
    },
    {
      "inputs": [
        {
          "internalType": "string",
          "name": "_symbol",
          "type": "string"
        }
      ],
      "name": "getCurrentPriceWithDecimals",
      "outputs": [
        {
          "internalType": "uint256",
          "name": "_price",
          "type": "uint256"
        },
        {
          "internalType": "uint256",
          "name": "_timestamp",
          "type": "uint256"
        },
        {
          "internalType": "uint256",
          "name": "_assetPriceUsdDecimals",
          "type": "uint256"
        }
      ],
      "stateMutability": "view",
      "type": "function"
    },
    {
      "inputs": [
        {
          "internalType": "string",
          "name": "",
          "type": "string"
        }
      ],
      "name": "prices",
      "outputs": [
        {
          "internalType": "uint256",
          "name": "",
          "type": "uint256"
        }
      ],
      "stateMutability": "view",
      "type": "function"
    },
    {
      "inputs": [
        {
          "internalType": "string",
          "name": "_symbol",
          "type": "string"
        },
        {
          "internalType": "uint256",
          "name": "_price",
          "type": "uint256"
        },
        {
          "internalType": "uint256",
          "name": "_decimals",
          "type": "uint256"
        }
      ],
      "name": "setPrice",
      "outputs": [],
      "stateMutability": "nonpayable",
      "type": "function"
    }
  ],
  "bytecode": "0x608060405234801561001057600080fd5b50610329806100206000396000f3fe608060405234801561001057600080fd5b506004361061004c5760003560e01c80631d74e678146100515780633b2b320414610066578063a69afdc6146100a4578063c3825f4b146100d2575b600080fd5b61006461005f366004610239565b6100fd565b005b610091610074366004610287565b805160208183018101805160018252928201919093012091525481565b6040519081526020015b60405180910390f35b6100b76100b2366004610287565b610146565b6040805193845260208401929092529082015260600161009b565b6100916100e0366004610287565b805160208183018101805160008252928201919093012091525481565b8160008460405161010e91906102c4565b9081526020016040518091039020819055508060018460405161013191906102c4565b90815260405190819003602001902055505050565b6000806000808460405161015a91906102c4565b9081526020016040518091039020544260018660405161017a91906102c4565b9081526020016040518091039020549250925092509193909250565b634e487b7160e01b600052604160045260246000fd5b600082601f8301126101bd57600080fd5b813567ffffffffffffffff808211156101d8576101d8610196565b604051601f8301601f19908116603f0116810190828211818310171561020057610200610196565b8160405283815286602085880101111561021957600080fd5b836020870160208301376000602085830101528094505050505092915050565b60008060006060848603121561024e57600080fd5b833567ffffffffffffffff81111561026557600080fd5b610271868287016101ac565b9660208601359650604090950135949350505050565b60006020828403121561029957600080fd5b813567ffffffffffffffff8111156102b057600080fd5b6102bc848285016101ac565b949350505050565b6000825160005b818110156102e557602081860181015185830152016102cb565b50600092019182525091905056fea26469706673582212205b1f9e81446bae86336a4335e80fa07281e96b730e5d0053e4ad5c4e570c471164736f6c63430008140033",
  "linkReferences": {},
  "deployedLinkReferences": {}
}